:020000040002F8
:1060000030720020C1630200C9630200CB6302004A
:10601000CD630200CF630200D163020000000000E4
:10602000000000000000000000000000D363020038
:10603000D563020000000000D7630200D9630200AC
:10604000DB630200DB63020055690200DB630200D0
:10605000DB630200DB630200DB630200DB63020040
:10606000DB630200DB630200DB630200DB63020030
:10607000DB630200DB630200DB630200DB63020020
:10608000DB6302004D670200DB630200DB6302009A
:1060900071670200DB63020075670200DB630200C8
:1060A000DB630200DB630200DB630200DB630200F0
:1060B000DB630200DB630200000000000000000060
:1060C000DB630200DB630200DB630200DB630200D0
:1060D000DB630200DB630200DB630200DB630200C0
:1060E000DB630200DB630200DB63020000000000F0
:1060F00000000000DB63020000000000DB63020020
:10610000000000000000000000000000000000008F
:10611000000000000000000000000000000000007F
:10612000000000000000000000000000000000006F
:10613000000000000000000000000000000000005F
:10614000000000000000000000000000000000004F
:10615000000000000000000000000000000000003F
:10616000000000000000000000000000000000002F
:10617000000000000000000000000000000000001F
:10618000000000000000000000000000000000000F
:1061900000000000000000000000000000000000FF
:1061A00000000000000000000000000000000000EF
:1061B00000000000000000000000000000000000DF
:1061C00000000000000000000000000000000000CF
:1061D00000000000000000000000000000000000BF
:1061E00000000000000000000000000000000000AF
:1061F000000000000000000000000000000000009F
:10620000DFF80CD000F026FA004800472199020080
:106210003072002030B450E8012F93B2C489234477
:106220008489A34228BF1B1B0489A34202BFBFF37A
:106230002F8F002007E0C3EA020340E80134002C5E
:10624000E9D14FF001000A6030BC704750E8012FDF
:10625000C2EA024240E801210029F7D1704730B478
:1062600050E8022F1FFAA2F3C488A34202BFBFF373
:106270002F8F00200DE0C48923448489A34228BFC6
:106280001B1BC2EA034340E80234002CE8D14FF064
:1062900001000A6030BC704750E8022FC2EA224277
:1062A00040E802210029F7D17047034653E8022F46
:1062B000D988B2EB324F4FF0000017BF92B241EADB
:1062C000014142EA014104E05A68B2EB324F08BF93
:1062D000012043E80212002AE8D1704730B4044696
:1062E00054E8000F0D4644E80053002BF8D1156028
:1062F00030BC704730B4044654E8000F40EA010552
:1063000044E80053002BF7D1156030BC704730B41F
:10631000044654E8000F00EA010544E80053002B4E
:10632000F7D1156030BC704730B4044654E8000F14
:1063300080EA010544E80053002BF7D1156030BC1A
:10634000704730B4044654E8000F00EB010544E800
:106350000053002BF7D1156030BC704730B40446B1
:1063600054E8000FA0EB010544E80053002BF7D1DF
:10637000156030BC704770B404464FF0000054E81C
:10638000006F0D68AE4207BF44E80023012044E8D7
:1063900000630E60002B1CBF0020F0E770BC70474C
:1063A00030B4044654E8000F88422CBF451A054615
:1063B00044E80053002BF5D1156030BC7047000055
:1063C0000648804706480047FEE7FEE7FEE7FEE78F
:1063D000FEE7FEE7FEE7FEE7FEE7FEE7796702007D
:1063E00001620200004870477CF402002DE9FE4380
:1063F000994615468846074601AC022942D3002D2E
:1064000040D000200290A8F101004FF0FF3600902C
:1064100022E000FB057201FB057011464A469047D9
:10642000002805DC54F82600304444F8260013E028
:1064300060682A4600FB057154F8040C00FB0570E7
:1064400007E00B7890F800C001F801CB00F8013BA1
:10645000521E002AF5D1764254F8040C6168884235
:10646000D7DC4B462A463846FFF7C0FF54F8040CE9
:106470004B46A8EB0001401C00FB05702A46491E54
:10648000FFF7B4FFBDE8FE8310B5431A934209D26B
:106490008318881803E010F8011D03F8011D521E2F
:1064A000F9D210BD40EA01039B0703D009E008C9F7
:1064B000121F08C0042AFAD203E011F8013B00F8C9
:1064C000013B521EF9D210BDD2B201E000F8012BFF
:1064D000491EFBD270470022F6E710B513460A4664
:1064E00004461946FFF7F0FF204610BD421C10F885
:1064F000011B0029FBD1801A704710B5002200E073
:10650000521C835C8C5CA34201D1002BF8D1D8B221
:10651000E1B2401A10BD034611F8012B00F8012B1F
:10652000002AF9D11846704730B5054600200346C9
:1065300000E05B1C934205D2EC5CC85C201A01D1E0
:10654000002CF6D130BD2DE9F04791460F4680462C
:106550000446002614F8015B2DB1FFF743FF0068E5
:10656000405DC007F6D12B2D02D02D2D18D0641E12
:106570004A463946204600F01EF827B13968A14244
:1065800001D1C7F8008071054FF002040BD54042DD
:10659000002803DD00F0E4F90460A007BDE8F087FF
:1065A00046F48066E4E70028F8DA00F0D9F90460E0
:1065B0006FF00040F2E72DE9F05F82460078002797
:1065C00015468B460AF10104B946302801D09DB129
:1065D00013E014F8010B0127782803D0582801D0C4
:1065E00045B10AE00DB1102D07D10027102514F890
:1065F000010B02E0082500E00A250026B0460EE067
:1066000005FB080005FB06F1012701EB10461FFA08
:1066100080F8B6F5803F00D3B94614F8010B29463F
:1066200000F02AF80028EBDABBF1000F05D00FB11B
:10663000641E00E05446CBF80040B9F1000F06D0CC
:1066400000F08EF902210160C81EBDE8F09F48EA03
:106650000640FAE7064C074D06E0E06840F001030B
:1066600094E8070098471034AC42F6D3FFF7CCFD0E
:10667000B0070300D00703003A2800D2303820F0DA
:106680002002412A01D3A2F13700884201D34FF002
:10669000FF30704770B58C1810F8015B15F00703D8
:1066A00001D110F8013B2A1106D110F8012B03E0AB
:1066B00010F8016B01F8016B5B1EF9D12B0705D4B3
:1066C0000023521E0DD401F8013BFAE710F8013BFC
:1066D000CB1A921C03E013F8015B01F8015B521E18
:1066E000F9D5A142D8D3002070BD00F01F020121CE
:1066F00091404009800000F1E020C0F8801270470E
:1067000000F01F02012191404009800000F1E020CB
:10671000C0F80011704700F01F02012191404009AC
:10672000800000F1E020C0F8001270474907090E10
:10673000002806DA00F00F0000F1E02080F8141DB8
:10674000704700F1E02080F80014704707480021EE
:10675000C0F84011C0F84411C0F84811C0F84C11FD
:10676000C0F80011C0F8041107F084BD001001400A
:1067700007F0CEBC06F054B830B54FF08050002280
:106780008300D0F83011C3F80C21C3F81021624BFC
:106790001A60624B1B68624C2360604B1B1D1B68B8
:1067A000241D23605D4B08331B68241D23605B4B55
:1067B0000C331B68241D2360584B10331B68241DA9
:1067C0002360564B14331B68241D2360534B18332E
:1067D0001B68534C20342360504B1C331B68241D12
:1067E00023604E4B20331B68241D23604B4B243306
:1067F0001B68241D2360494B28331B68241D23601C
:10680000464B2C331B68241D2360444B30331B68DC
:10681000434C40342360414B34331B68241D2360B8
:106820003E4B38331B68241D23603C4B3C331B68B4
:10683000241D2360394B40331B68241D2360012332
:10684000082902D1D0F8344114B1082904D006E057
:10685000354C3449216005E0D0F8344114B10829A1
:1068600004D006E0314CFB21216005E0D0F8344132
:1068700014B1082908D00EE090F858422C4801685D
:1068800064F30301016002E0D0F834411CB92949E6
:106890004FF40070086028480168C90702D06FF003
:1068A000010101602548016841F470010160BFF3F6
:1068B0004F8FBFF36F8F4FF01021D1F800020028E7
:1068C00003DBD1F80402002822DA1D4C23601D48A6
:1068D0000368002BFCD01223C1F800320568002D9C
:1068E000FCD0C1F8043201680029FCD022600168A4
:1068F0000029FCD0BFF34F8F10487C380168124A42
:1069000001F4E06111430160BFF34F8F00BFFDE769
:106910000F490E48086030BD3805004004040010DF
:1069200020C50040488103008C56004018F5004007
:10693000E40E0040409602400004004088ED00E074
:1069400004E5014000E401400400FA050090D00392
:10695000F02300200148006800470000D4220020F6
:1069600000487047F423002002E008C8121F08C145
:10697000002AFAD170477047002001E001C1121FC0
:10698000002AFBD1704700000121202803DA814052
:106990000548014003E0402802DA2038814009B16F
:1069A0000120704700207047FC06FFBD800701D022
:1069B0000020704701207047C3688B4206D81144FD
:1069C0000069491E814201D80120704700207047AC
:1069D00072B605F00BFA00BF04F09CFF0028FBD153
:1069E000144D154915486A88081AC4082AB10120AF
:1069F00000EB044012A105F0C9F814480068C00774
:106A000000D000BE6888022805D3022000EB0440B5
:106A10000FA105F0BBF8BFF34F8F0C48E4380168B5
:106A20000F4A01F4E06111430160BFF34F8F00BFD3
:106A3000FDE7000070240020B80803006008030090
:106A4000466174616C206572726F7200F0ED00E057
:106A500053797374656D207265736574000000006E
:106A60000400FA050EB500210091CDE901106A4637
:106A700044F20100FFF7ACFF0EBD0000084B9B780D
:106A800023B12AB120B10068037C1BB108207047F4
:106A90000720704700230374417442611846704711
:106AA000DC29002070B507F047F9104800240B21BD
:106AB000047044700E4D817014206C602C706C70EA
:106AC000FFF713FE06211420FFF730FE1420FFF716
:106AD00017FE0848046006211120FFF727FE05482D
:106AE000001F0068A860002070BD0000DC290020A5
:106AF000DC220020081501402DE9FC47DFF87890E2
:106B000099F8023073B368B3052902D20720BDE8B3
:106B1000FC87436933B3437C012B25D0002704460F
:106B20000025884616468DF80050684600F038F873
:106B300001A807F06FFEC8B1012101700F49446040
:106B40000968C0E90218C0E904769DF8040089F8D4
:106B500001009DF8000000F047F81420FFF7DBFD6E
:106B60002846D4E70820D2E70F46D8E704259DF849
:106B7000000000F039F8F3E7DC290020041501409B
:106B80000649897839B130B1416921B100210174D8
:106B9000022107F04BBB082070470000DC290020D1
:106BA00030B5EFF3108172B60D4A9468012324B119
:106BB0000370002900D162B630BD93604FF0E0232E
:106BC000D3F88051074C25401560C3F88041D3F8B5
:106BD000844154605A17C3F8842100220270E8E708
:106BE000E82A0020FC06FFBD0B498A68002A11D064
:106BF00000280FD1EFF3108072B60B684FF0E0223F
:106C0000C2F800314B68C2F8043100228A600028C3
:106C100000D162B670470000E82A002070B5054632
:106C200008680C46411C04D004F056FC206804F0AF
:106C300023FC6068411C02D0002104F00BFC296891
:106C4000A069C1F82405607D227D29681043C1F840
:106C50006C05D4E900122868C0F81425C0F80C159A
:106C6000207D012814D1A068411C02D0002104F02D
:106C7000F1FBE068411C04D004F02EFCE06804F055
:106C8000FBFBD4E902122868C0F80825C0F81015EB
:106C900070BD70B5054608680C46411C04D004F070
:106CA00025FC206804F0F2FB6068411C02D0002142
:106CB00004F0D9FB2968A069C1F82405607D217D15
:106CC0002A680843C2F86C05D4E900122868C0F8A5
:106CD0000C15C0F81425207D012814D1A068411C92
:106CE00002D0002104F0BFFBE068411C04D004F096
:106CF000FDFBE06804F0CAFBD4E902122868C0F882
:106D00000825C0F8101570BDF0B500220D4BCA6003
:106D1000C1E901230C4B0D4D1446EE1A0A600CE03C
:106D200003EB0215EF683F79FF2F05D0A04202D197
:106D3000A8680860F0BD641C521CB2EB161FEFD3AC
:106D4000F0BD0000E4F10200400803006008030009
:106D50002DE9F8430546861C00208DF8000090467A
:106D60000F464FF001096846FFF71AFF1B4C2068D9
:106D70003860D4E90001401AA16804F21C47081ADF
:106D80000EE00121384603F06AF902F0DBFC01460F
:106D9000384603F064F9D4E90001401AA168081AE2
:106DA000401C8642EDD8B8F1000F03D0052065F3F2
:106DB000891002E0062065F39F50A2682168114007
:106DC00004EB8101C8602068304420609DF8000019
:106DD000FFF70AFF4846BDE8F88300000C2E0020AC
:106DE00070B50D4604460A2902D10D21FFF7F8FFC0
:106DF000A0682268411CA1601554D4E901018142B8
:106E000004D32046BDE8704003F081BF70BD000090
:106E1000034803C8814201D1012070470020704718
:106E20000C2E002070B5816804468A7F002A4DD060
:106E3000C87F00284AD0121A0844D5B200F12001B8
:106E40006A1C1F30FFF720FBA068C17F491EC17775
:106E5000A068817F491E81778DB308221C49206973
:106E600003F048FF204603F07FF88178C078814224
:106E700011D1A06817A2C17F4318082120462033F2
:106E800003F09AFC204600F013F929462046BDE89D
:106E9000704001F0A3B8204600F01EF9204600F033
:106EA00007F9A0680BA2C17F4318082120462033B0
:106EB00003F082FC2046BDE8704000F003B9206971
:106EC000BDE87040044A03A103F014BF70BD000088
:106ED000AC7002002573000051EF020070B504464B
:106EE0008068827FC17F521A12F0FF053AD00844B1
:106EF00000F121012A462030FFF7C6FAA068817F01
:106F0000491E8177204603F02FF88178C0788142AE
:106F100014D1A06814A2C17F431808212046203351
:106F200003F04AFC114A10A1206903F0E3FE6D1E34
:106F3000E9B22046BDE8704001F050B8204600F0AC
:106F4000CBF8204600F0B4F8A06807A2C17F431830
:106F500008212046203303F02FFC2046BDE8704076
:106F600000F0B0B870BD00002573000055EF0200BE
:106F70002DE9F041044680680F46D0F84811C27FE1
:106F800011F00106817FA1EB0203DDB20BD07F2956
:106F900001D3002D7ED0A068C17F0844002180F875
:106FA000207066B113E07F297CD2002DF3D08318C6
:106FB00003F120012A46481CFFF766FAEBE7A068B8
:106FC000827F521CD2B28277A068203281544DB3A6
:106FD000204602F0C9FF8178C07881420ED1A068B6
:106FE00031A2C17F431808212046203303F0E4FB7F
:106FF000A81BC1B2204600F0F1FF21E0204600F0BE
:107000006BF8A06828A2C17F4318082120462033CE
:1070100003F0D2FB204600F055F80121204601F094
:10702000B7F80DE03EB1A068827F521CD2B28277E1
:10703000A068203281543A461CA1206903F05AFE10
:10704000A168C87F401CC877204600F0B4FF002824
:10705000204603D0BDE8F04100F0CCBF01F0F0FCC9
:1070600000281FD0204602F07FFF0546C078A9788F
:10707000401A401EC1B2204600F03EFF204600F0FC
:10708000B9FFE878A978401AC1B2204601F08CF81F
:10709000287800E006E0401EC1B22046BDE8F0417D
:1070A00001F076B8BDE8F08125730000256300008B
:1070B0000069024A02A103F01DBE000049EF020070
:1070C000257300000069024A024903F013BE000064
:1070D00043EF0200C07002000069024A024903F057
:1070E00009BE000040EF0200C07002002DE9F04F21
:1070F0004FF0000995B005464F464C4600F0F2FDB2
:10710000284601F0FBFE284600F002FF284600F06A
:1071100052FF10B9284600F06DFFAA680C2301A9A0
:107120000EA8203202F0FAFD03460E9840B15BB182
:1071300049A20221284603F03FFB15B0BDE8F08FBD
:10714000284600F057FFF8E7494848490026A1EBD8
:1071500000080DF1040A834613E008D345A000900F
:1071600049A202212846019B03F026FBE5E70BEB31
:10717000C604606801685AF82900FFF7BEF918B123
:10718000761CB6EBD80FE8D94FF000000F90A96835
:1071900048608860C86008616168C86828B14AC9E9
:1071A000AA68C2E90360C2E90113606809F1010439
:1071B0004FF00006D0F808800E98844235D25AF875
:1071C000240033A1FFF799F940B35AF8240031A104
:1071D000FFF793F910B310A832460090761C0FAB5E
:1071E0002146404600F03AFDFEB10F98E8B1016833
:1071F0005AF82400FFF781F90028DDD10F98C16803
:1072000039B190E84810AA682746C2E903C1C2E92B
:1072100001360026641CD0F80880CDE7A868D0F8B5
:10722000481141F00201C0F84811A868036933B160
:107230000E980AEB8702C11B2846984704E017A264
:107240000221284603F0B8FAA868D0F8481121F0C6
:107250000201C0F8481170E76E6F74207465726D9A
:10726000696E617465643A2025630A004008030072
:10727000D00703003A20636F6D6D616E64206E6FFE
:107280007420666F756E6400257325730A00000014
:107290002D6800002D2D68656C700000506C6561D4
:1072A0007365207370656369667920612073756208
:1072B000636F6D6D616E642E0A0000008068D0F807
:1072C0004801C0F3C000704700B589B020220D49C5
:1072D00001A8FFF7D9F806200190082002900020AD
:1072E0008DF8180003200090064801231A4601A9D2
:1072F000183803F0D3FB002801D0FFF7B3FB09B027
:1073000000BD000090EC02002DE9F0410446C06889
:107310008EB00D46406800263246006801A904F090
:1073200045FE18B100200EB0BDE8F0816DB10198A6
:1073300004F01CFEA168D1F83801401CC1F83801E6
:1073400000F0070001287AD10126204602F00CFE49
:1073500005468078012804D9401EC1B2204600F0BD
:1073600023FF2878012804D9401EC1B2204600F02E
:1073700035FE2046FFF79CFE2EB132A202212046A8
:1073800003F01AFA5BE04FF000080023082202A97C
:10739000019804F0FAFD04980590BDF80C00ADF8D2
:1073A0001800BDF80E00ADF81A008DF81D80029887
:1073B000082700F00300012802D0022818D032E08C
:1073C00002983B46860AC0F3C2008DF81C00029862
:1073D00008A9C0F38315AA00019804F0D6FD20691E
:1073E000009005AB2A4608A9304604F015FD1AE0C6
:1073F0000298850DC0F3C2008DF81C00082D01D243
:107400002E4600E008263B46324608A9019804F0C3
:10741000BCFD3744AD1B05AA314608A8236904F01A
:10742000D1FB002DEAD1019804F0A0FDE068002214
:1074300001A94068006804F0B9FD0028A5D001202A
:1074400071E700004C6F7374206C6F6773202D2000
:10745000696E637265617365206C6F67206261633A
:107460006B656E642071756575652073697A652E2C
:107470000A000000014803F08FBB000078EC020016
:1074800030B4406804682469A44630BC60470000FA
:1074900010B5054803F0BAFB002803D0BDE8104042
:1074A000FFF7E0BA10BD000078EC02002DE9FC41C6
:1074B000002604460127019601AB012269462046B9
:1074C000FFF7DEFF0198002836D09DF800007F28E6
:1074D000F2D804F06AFDA068417821B101296FD08B
:1074E00002296ED18DE09DF800500D2D09D00A2D96
:1074F00007D0D0F84821002161F38D12C0F848214F
:1075000022E0D0F84811C1F3871129B1D0F8481111
:10751000C1F38711A94217D1D0F8481165F38D1135
:10752000C0F84811A068817F41B12046FFF7DEFD19
:107530000221204600F0F4F8BDE8FC81C0F8446167
:10754000204600F057FDF3E7092D1ED004DC002D86
:10755000B2D0082D04D121E01B2D12D07F2D26D0D2
:10756000FEF740FF0068405D10F03E0FA4D02046BB
:10757000FFF7A4FE30B39DF800102046FFF7F8FC9B
:107580009AE7A1680120487096E72046FFF796FE2B
:10759000002891D0204600F0DDF88DE72046FFF767
:1075A0008DFE002888D02046FFF73CFC84E720466B
:1075B000FFF784FE0028E3D02046FFF78FFC7BE72F
:1075C00016E019E0A1689DF80020887F7F28D7D2B7
:1075D000C87F0B18401CC87783F82020A068C17FA3
:1075E000084480F82060A168887F401C887763E7A2
:1075F0009DF800105B2901D0002100E002214170BC
:107600005AE7002141702046FFF758FE002893D02A
:107610009DF80000422840D01BDC33287CD012DCCF
:10762000312872D03228ABD1A16803204870A068FD
:10763000D0F84811D0F8482127EA010161F300028F
:10764000C0F8482138E7342856D0412898D1012184
:1076500024E0462853D01BDC432823D044288FD174
:10766000204602F081FC05460078A979491C884231
:1076700002D1A978012987D001284FF001012046C5
:107680002FD000F0ABFCA168C87F401EC87713E77D
:1076900048283DD04C2889D1C9E70021204601F077
:1076A0001BFB09E7204602F05FFC0546007869787D
:1076B000884203D1A978EA78914298D069798842C2
:1076C0004FF00101204606D100F016FC69792046F2
:1076D00000F084FC01E000F05BFDA168C87F401C65
:1076E000D4E700F061FD6979204600F051FDA06803
:1076F000C17F491EC177DFE6A1680320487020469C
:1077000000F006FCD8E607E0FFE7A1680320487018
:10771000204600F026FCCFE6A1680320487046E72B
:107720008268022911700CD18268002182F8201031
:107730008268D1778268917702A20321036803F0FF
:107740003BB8704725730000002801D0FEF7CEBE7D
:10775000704700002DE9F04F05460020A7B007460E
:107760001590064620900690A868817FC1F17F01A0
:10777000C9B25FEA010970D0C27F00F12001A030D8
:10778000FEF782FEA8680024C17F084480F8A0406C
:10779000FEF728FE21900168A8680C23C27F0244EE
:1077A000D27F895CC0F84441AA6801F0010A07A9A8
:1077B00016A8A03202F0B2FA0798FFF7C5FF00F052
:1077C000FF08A34617941894169818B15044401E09
:1077D000B0426CD8BAF1000F01D0002005E007A834
:1077E00050F82600FFF7B0FFC0B28046002419A869
:1077F00022460090641C17AB3146584600F02EFA22
:10780000179800286CD0016807A8424650F8260057
:1078100001F0EAFC0028EAD018987F1CF0B1179814
:107820000068FFF791FF0699C0B2884200D9069020
:10783000B9F1000F2ED022A8009018AB314658465F
:10784000159A00F00BFA17980168189801EB0802D6
:107850000168002001EB080316E08DE0601E209017
:1078600017980068FFF770FFC0B20690A0EB080001
:1078700048450FDAC0B20CE013F800C0614506D1EC
:10788000401C10F0FF0010D0115C0029F4D181459C
:1078900000D98146601E159017981890A7D266A24D
:1078A0000421284602F088FF1AE0FF20EFE70024B9
:1078B00019A822460090641C17AB3146584600F0C8
:1078C000CDF9ECB31798002856D0016807A850F8F6
:1078D0002600FEF712FE0028EAD11798D0F808B06B
:1078E000BBF1000F09D0179838B11699761CF6B283
:1078F00001EB0A008642FFF467AF002F3CD0012F56
:1079000043D000212846069A05F09EFB209C0DF1ED
:107910001C0A19A822460090641C17AB3146584631
:1079200000F09CF91798424601685AF8260001F0C9
:107930005BFC40B117987F1E069A0168284600E05C
:107940001DE005F081FB002FE3D146A2032128466C
:107950002B6802F031FFAB6843A208212846203390
:1079600002F02AFF284600F0DDFB18984A4601681D
:107970002846414400F05AFA27B0BDE8F08F2EA205
:107980000421284602F018FFF6E79BF8000038B102
:1079900019A8009018AB31465846159A00F05EF9C8
:1079A00018980068FFF7D0FE404506D018984A4660
:1079B00001682846414400F039FA2198A968026814
:1079C000C87F0B1893F82030D25CD20715D0897F7E
:1079D0008842D1D2284602F0C7FA8478A868C17FCD
:1079E000491CC177284602F0BFFA8078A0421FD117
:1079F0000121284600F0CCFBBEE7D1F84801C007C2
:107A000011D0D1F8480120F00100C1F8480120212F
:107A10002846FFF7ADFAA868D0F8481141F00101F7
:107A2000C0F84811A8E720212846FFF7A1FAA3E7EC
:107A3000284600F0DFFA9FE75461622066756E63A6
:107A400074696F6E3A20636F6D6D616E647320634D
:107A50006F756E746572206F766572666C6F776590
:107A6000642E0A000A25730025730000002806D042
:107A70008868D0F8481141F02001C0F848117047DB
:107A800070B5044640680D4690F8280030B1A068F3
:107A90000068FFF775F808B108280CD1012685B1F8
:107AA000606903F01BF9616800220831606903F026
:107AB000D1F808B1062070BD606880F82960002008
:107AC00070BD606890F8280048B9074A0021A06896
:107AD000FEF7D4FF6168002881F82860F0D12046C5
:107AE000BDE8704006F086B9F5E0020070B50446C6
:107AF00040680D460260606800224360606880F85C
:107B00002820606880F82920606820220830FEF76D
:107B1000BBFC2C61074A2946606903F09BF805000D
:107B200005D1E06804F084FC206904F081FC28465B
:107B300070BD000023E302001A60C0681A4604F01A
:107B4000B5BB10B50446406903F0C8F8A0680068EA
:107B5000BDE81040FFF714B87CB51A600446006910
:107B60001A4604F0E1FB050025D16069134A01784B
:107B7000515C19B1001D05F001FA02E00C3005F06E
:107B800075F8C0B9FF20009001236A4601A9206959
:107B900004F016FC78B900980199C2B2606903F04C
:107BA0008DF80546606890F8290020B11DB920695C
:107BB000009904F0F2FB28467CBD0000C0220020A2
:107BC0002DE9F8431E4615468846074600241BE06B
:107BD000786808EB04016B460268D2F80CC02A46AC
:107BE000E047009804442D1A70B9B8680178032959
:107BF0000AD000BFD0F848118906FBD5D0F848114B
:107C000021F02001C0F84811002DE1D1002E01D053
:107C100000983060BDE8F88308B50B46009102A2D9
:107C2000022102F0C9FD08BD25733A2077726F6EFC
:107C30006720706172616D6574657220636F756E27
:107C4000742E0A54727920272573202D6827206608
:107C50006F722068656C702E0A0000002DE9F05FDD
:107C60001C460A9E15464FF0000959B180B30178B1
:107C700039B342683146284690473068D8B126600B
:107C8000BDE8F09F14491548A1EB0008B5EBD80FEB
:107C900011D2DFF84CA00026834609E00BEBC607A3
:107CA000786801685AF82500FEF727FC30B1761C89
:107CB000B6EBD80FF2D3C4F80090E1E77868206003
:107CC000DEE7406800EB0210016809B11860D7E7F1
:107CD000FFE7C3F80090D3E740080300D007030094
:107CE000F82300202DE9F04185680646002495F828
:107CF0002000002811D0A046FEF774FB074600685C
:107D000004F1200104F10104695CE4B2415CC9079B
:107D100005D0002CF4D185F82080BDE8F081641EE8
:107D200014F0FF040FD0A87F021B04F120002918D3
:107D300005F12000521CFEF7A7FBB168887F001BED
:107D40008877B168C877B2683D68937FD0181F30D4
:107D50000446002102E0491CC9B2401E0778EF5DCD
:107D6000FF07F8D18442D8D05B1A203302F8038091
:107D7000B268907F401A9077B168C877CDE700006D
:107D80002DE9F05F26484168F1B3DFF898B00E683E
:107D90008146DBF8004087688078E11B21F07F4551
:107DA000ED1CB0B9DFF880804FF48030C8F8440390
:107DB000C8F804031120FEF798FC1120FEF7A0FC80
:107DC0004FF0010AC8F800A02F2004F0D7FD89F871
:107DD00002A0B54200D23546124BE8193C3320F0E0
:107DE0007F401860DBF800105A46091B21F07F41E4
:107DF000001B20F07F40C91C81420FD91068186019
:107E00002F2004F0BBFD00E004E0BDE8F05F11208E
:107E1000FEF781BCBDE8F05F05F08EBFBDE8F09FC6
:107E2000DC22002004150140001001402DE9F04142
:107E30000446806815460F46827FC17F531A2A4444
:107E4000DEB27F2A37D8002D35D0084400F120015A
:107E500005F120021044721CFEF716FBA0682A46AA
:107E6000C17F084439462030FEF70EFBA068203061
:107E7000FFF76AFCA16811A28877A068C17F431848
:107E800008212046203302F097FCA068C17F2944D6
:107E9000C177204600F08FF818B9204600F0D0FDD9
:107EA00010B1204600F0A6F8002E04D02046BDE810
:107EB000F04100F037B9BDE8F08100002573000003
:107EC00010B5044612B11088002211E04FF6FF7081
:107ED000FAE7030A43EA0023A05C5840C0F3031307
:107EE000584080EA003080B2C3B280EA4310521C8E
:107EF0008A42EED310BD0000002904D00A46006972
:107F000001A102F0F7BE70471B5B25644200000030
:107F100070B5054602F028F804460078617888427A
:107F200003D1A078E17888421AD0E178A078814224
:107F300004D9081AC1B22846FFF7DEFF207861781D
:107F4000884205D9401AC1B2284600F047F804E03B
:107F5000081AC1B2284600F01BF9A868817FC177D2
:107F600070BD70B5054601F0FFFF044601788079C9
:107F7000401C814202D1A07801281BD0A0780128A2
:107F800004D9401EC1B2284600F00EF92078A1792C
:107F9000884206D9401A401EC1B2284600F01EF899
:107FA00005E0081A401CC1B2284600F0F1F8A968A3
:107FB0000020C87770BD10B504460068FFF7C4FB09
:107FC0000146A068C27F407E1144B1FBF0F200FB85
:107FD000121008B1002010BD012010BD002904D0EE
:107FE0000A46006901A102F085BE70471B5B25644B
:107FF00044000000006901A102F07CBE0A000000FC
:108000002DE9FC47002604468DF80460806835465B
:10801000B146B0468021A030FEF75DFA40492069A4
:1080200002F068FE206902F072FE00276B46012212
:1080300001A92046FFF724FA0098D8B19DF8040062
:108040001B2806D0A16891F8A0101B29EED1522858
:108050001FD0A26808F1A001505408F1010000F0FF
:10806000FF08B8F1090F0AD9A168042081F8A0908F
:10807000BDE8FC872A494FF6C010103188470098A8
:108080000028D3D17F1CBFB2B7F57A7FCED30D20A5
:10809000EEE7A16808F1A0004A4601F80090A16847
:1080A00091F8A1005B2803D081F8A0200B20DFE726
:1080B00002206FF02F0309E005EB850503EB450572
:1080C000401C3D44C0B2ADB2802808D200F1A007E8
:1080D000CF5D3B2FF0D1401CC0B2802809D30C20CB
:1080E000C6E700BF06EB860603EB46063E44B6B283
:1080F000F1E700F1A007CF5D002FF3D1FA20FA2EAF
:1081000001D9087500E00E75FA2D02D9A1688875AD
:1081100001E0A0688575A06880F8A0200020A7E78E
:1081200061EF020070B5054601F01EFF044680783D
:10813000E178884201D1012600E000262846FFF7B9
:108140003AFF18B9284600F07BFC10B12846FFF72B
:1081500051FF1EB160782178401A12E0E078A178D2
:10816000401AC1B2284600F01FF820786178884292
:1081700006D9401AC1B22846BDE8704000F008B8E0
:10818000081AC1B22846BDE87040FFF727BF0000BB
:10819000002904D00A46006901A102F0ABBD704776
:1081A0001B5B256443000000002904D00A460069D7
:1081B00001A102F09FBD70471B5B256441000000D8
:1081C00001490120087070474D22002070B50C460F
:1081D000054602F057FC30B12846BDE87040002249
:1081E000114602F011BB012C05D02846BDE87040B5
:1081F00003A1FFF711BDBDE87040FFF7E1BF00002C
:1082000064656C6574655F616C6C000070B5134DDE
:1082100028786978F9B1002108421ED01148124A25
:108220000F4E801AC0087188032202EB0044032914
:1082300003D320460DA103F0A9FC05F0A9FB28708B
:1082400000280AD17088032807D32046BDE8704073
:108250000CA103F09BBC0121DEE770BD4D22002084
:1082600070240020B80803006008030044656C65B2
:1082700074696E67206E657874207265636F7264CE
:108280002E0000001B5B313B33366D4E6F20726554
:10829000636F726473206C65667420746F2064650C
:1082A0006C6574652E00000070B515460C460646D8
:1082B00002F0E8FB30B13046BDE8704000221146C4
:1082C00002F0A2BA032C05D23046BDE870400AA1E4
:1082D000FFF7A2BC102200216868FEF734F90446BB
:1082E00010220021A868FEF72EF9024621463046EA
:1082F000BDE8704005F0D4BA64656C657465000033
:108300007FB50C4610B1012004B070BD2079002665
:1083100038B141F61D5501281BD0022826D00F2068
:10832000F2E70220207102960396E0680190694608
:1083300001A805F087FB50B102988188E180008890
:108340002081BDF80010029805F0FAFBDCE70A2056
:10835000DAE70A4B6A460021A01D05F02FFB38B171
:10836000064918398E61CE610A28CDD12846CBE75F
:1083700002488188019805F0E3FBF5E71C23002003
:1083800010B50021024801F085FE80F3100010BDF9
:10839000283200200E4910B50A784C780023A242FA
:1083A00012D0521CD2B20A70022A00D10B70084AB5
:1083B0000B780C3252F8232002608868104420F0B9
:1083C0007F408860012010BD0360002010BD0000C8
:1083D000DC2200202DE9F843104D0F4680461E4652
:1083E00091466946286801F002FE040014D01C2161
:1083F000FEF771F801202071C4F81490380BC4F80E
:108400000080C4E902606946286801F011FE05F0A9
:1084100021FA0020BDE8F8830420FBE70CF00200FD
:1084200010B503780022072B06D2DFE803F005041D
:108430000610202930000A7010BD01230B7003893B
:108440008B818388CB81C06888600A7410BD02224A
:108450000A7002898A818288CA81C2688A60807DA6
:10846000062802D00020087410BD0120FBE703227B
:108470000A70C2888A810289CA81C068886010BD7A
:1084800004230B70C0888881CA818A6010BD0520D2
:10849000087010BD70B5064D0646002455F824102E
:1084A00009B130468847641C042CF7D370BD000026
:1084B000002B002030B50446006887B00D46806868
:1084C00000281FD018216846FEF705F80195A0681E
:1084D0000590207910B1012810D107E001208DF816
:1084E000000020690290E068039005E002208DF80A
:1084F0000000E068000302906069049020688168D1
:108500006846884707B030BD70B505463148324AE5
:108510002F4E801AC0087188032202EB0044032901
:108520000BD32E49686851F820302878403151F833
:10853000202020462AA103F034FB287830B10128FE
:108540000CD0032809D1686828B33CE0686800288B
:1085500003D122490120091F087070BD68680028F6
:10856000FBD170880328F8D3204625A1AA6803F020
:1085700011FB70880328F0D3AA89204625A103F0B7
:1085800009FB70880328E8D3EA892046BDE87040DB
:1085900024A103F0FFBA7088032814D3204618A141
:1085A000AA6803F0F7FA708803280CD3AA8920463A
:1085B00018A103F0EFFA7088032804D3EA89204653
:1085C00018A103F0E7FA05490020C91E487070BDE4
:1085D00070240020B8080300600803005022002027
:1085E0001B5B313B33326D4576656E743A202573E3
:1085F000207265636569766564202825732900000B
:108600005265636F72642049443A093078253034EA
:108610007800000046696C652049443A09307825A5
:10862000303478005265636F7264206B65793A0963
:1086300030782530347800000C4808B5007888B1CF
:10864000684605F039F878B106210170684605F0F2
:1086500041F80748017809B10121017305F0ECF8F0
:10866000002008BD022008BD082008BD24230020EA
:10867000C42B0020F0B587B014216846FDF72BFF0E
:108680002F4C207818B16846FFF704FF55E0201DF5
:1086900001F0E2FC98BB40F6F8700168481C02D17A
:1086A0004FF0102041694FF08050026940694B1C27
:1086B00001D100FB02F1234800220161A1F54051E4
:1086C000C160214902F0C4FC002822D120481C23AB
:1086D0008C221E49006801F077FC04F073FD050050
:1086E00016D0022D14D000270126062D13D005A880
:1086F00004F0E2FF90B106700C2D19D200E01CE0EE
:10870000DFE805F0160E160E1615161516101210C7
:108710000B2007B0F0BD26706760B4E70820F8E7CB
:10872000077105E0032100E00221017100E00671FC
:1087300005A804F0CFFF05F07FF80020E9E700006E
:1087400024230020302400201CF00200102B0020E5
:1087500088ED020038B5040014D0694605F072F9BE
:10876000A0B1BDF8000000EB8001094800EB8100DA
:10877000C16849B1A17A39B1C168491EC160002000
:10878000A07238BD052038BD062038BD0A2038BD8E
:108790009C2B002038B504460D48007888B194B170
:1087A000684604F089FF80B1042101700021017145
:1087B0002168C160684604F08DFF05F03DF8002097
:1087C00038BD022038BD052038BD082038BD000066
:1087D000242300201FB501A9684605F0EFF804B076
:1087E00010BD0B4602460021084605F0E7B8000020
:1087F0002DE9FC410E4605002ED06EB301A905F00F
:1088000021F968B36C6800220621B4F806806788F5
:108810002046FFF755FBB900ADF8000001276A4676
:1088200004F10800091DFFF74BFBADF800004045BF
:1088300014D1BDF804000B4900EB800001EB80006F
:1088400001210C3001F00BFC346068680C30706062
:10885000AF720020BDE8FC810520FBE70D20F9E7A1
:108860000A20F7E79C2B002018B10323002206F012
:10887000A3B8052070470223002206F09DB800002F
:10888000084910B50A69042A0AD0074A096942F85A
:10889000210004480121103001F0E1FB002010BD4F
:1088A0000C2010BD04230020002B00202DE9F84FE0
:1088B000044623480078D8B1ECB112212046FDF7D8
:1088C0000AFE0320DFF87C902080002504F11008C8
:1088D00004F10E0A05EB850109EB810630897189E7
:1088E000084487B2706804F0F7FB032805D007E05E
:1088F0000220BDE8F88F0520FBE72088401E20807D
:108900006088F1680844608020897189084420816A
:10891000608938446081C7F58060A18980B2814256
:1089200000D2A0815346A21D211D2846CDF800800B
:1089300005F0BCF96D1CADB2022DCBD30020D8E7F9
:10894000242300209C2B00202DE9F05F17460E0009
:10895000814670D013B1F9B2FFF71AFC0024FDF77D
:1089600041FD8246006800E0641C315D415CC9073E
:10897000FAD100253046FEF7E7FED9F80810001BB3
:108980004A7ED11B814228D306EB040805E000BFD4
:1089900018F805100A290CD06D1C8542F8D331193E
:1089A000D9F8100002F0A6F94846BDE8F05FFFF7DD
:1089B00021BBD9F8100002F0AAF9414600232A464B
:1089C0004846FFF7FDF82C444846641CFFF712FBAD
:1089D000F9B24846FFF7DCFBE1E78B46DAF8001016
:1089E00006EB040818F805000B5CDB0702D0AB4669
:1089F0000A2804D0E819904201D26D1CF2E7D9F898
:108A0000100002F084F9414600235A464846FFF719
:108A1000D7F85C44DAF8000000E0641C315D415C8A
:108A2000C907FAD14846FFF7E5FAF9B24846FFF719
:108A3000AFFB9EE7FFE7BDE8F09F406804F05CBE37
:108A400010B504460068FEF77FFE0146A068827FED
:108A5000407E1144B1FBF0F200FB121008B100207F
:108A600010BD012010BD000010B50446FFF7E4FD65
:108A7000002809D0054906A251F820302046BDE85B
:108A80001040022101F098BE10BD000050220020CD
:108A90006572726F723A2067617262616765206306
:108AA0006F6C6C656374696F6E2072657475726E3D
:108AB00065642025730A000070B508B1012070BDFF
:108AC0001B4C0025207B08B1257301E000F0A4F8C1
:108AD000207808282AD2DFE800F02904080C1029A1
:108AE0001422BDE8704000F025B8BDE8704000F0E9
:108AF00081B8BDE8704000F063B8BDE8704000F098
:108B00003FB8062020706088094900EB80002839B2
:108B100001EB80004068BDE8704004F033BB0720E3
:108B200020706560BDE8704004F03ABB0F2070BD56
:108B3000C42B00201149F0B48A1C00200346A1F187
:108B400028050C18A67A4EB1A37200EB800405EB41
:108B50008404E66816B9247C012C0AD0401C80B23B
:108B60000228EED30B704B804B60F0BC41F61D50D9
:108B700070471080F0BC00F03DB80000C42B00200E
:108B80000C48418801EB8102A0F1280101EB820130
:108B9000CA6852B10521017007480221818001682D
:108BA00000230122054802F0ABB904220270496893
:108BB000F6E70000C42B00202C23002030240020E6
:108BC00038B50A49084803240B684268898803EBD2
:108BD000810153880470DB1C00201B0400909B0B58
:108BE000034802F0F3FA38BDC42B00202C230020E8
:108BF00030240020074910B54888091D04F072FF91
:108C000018B1BDE81040FFF7DBBFBDE81040FFF72B
:108C1000B7BF0000C42B0020F0B51F481F49012535
:108C2000067802248B88A0F12802082E19D2DFE8EA
:108C300006F00418181B222F2F170189491C0181E7
:108C40000021418080F80C1001EB810312F82330E1
:108C500043B100234418491C89B2A3720229F3D3FB
:108C60000570F0BD0123F5E742685288D21C1A4412
:108C70008A800470F0BD46880D6806EB860602EB1C
:108C8000860256680E60556013818C80062100E0D4
:108C900007210170F0BD0000C42B00202C23002010
:108CA000428800EB82020C328A4201D902207047CE
:108CB0008188A1F57F42FF3A03D0008808B10020E7
:108CC000704701207047884204D20068401C01D0E0
:108CD0000120704700207047FEB50026044600962C
:108CE000019602968068E9B3D0E950128A4272D0A8
:108CF000D0F83C0100286ED02046FFF732F9A0687A
:108D0000D0F84451002D69D0002309226946284635
:108D100003F03BF9A1689DF808500098C1F84401A0
:108D2000A06800230922D0F84401694603F02DF918
:108D3000A1689DF808200923D1F844012031521C74
:108D400003F023F9A1689DF80800C877A1689DF891
:108D5000080088779DF80800A84202D22046FEF756
:108D6000A7F900E00BE0A3682BA2082120462033DE
:108D700001F022FD2046FFF71EF968BB43E0D0F862
:108D80004401002847D02046FFF7EBF8A0680023F5
:108D90000922D0F84401694603F0F7F8A068019968
:108DA000C0F84411A0680029857FB9D1A030FEF732
:108DB000CBFC0028A06805D000F1A0012030FDF711
:108DC000AAFB01E080F82060A0682030FEF7BCFC20
:108DD0008DF80800B6E71EE01AE0FFE72030FEF746
:108DE000B3FC10F0FF05A068D0F83C11C0F84411A6
:108DF000A06805D000F12001A030FDF78CFB8FE7C3
:108E000080F8A0608CE72046FFF71AFE002802D009
:108E10002046FFF7EFF8FEBD25730000FEB50D46B6
:108E2000816804460026D1F83C0138B300230922AA
:108E3000694603F0AAF80195A06800230922D0F83A
:108E40003C01694603F0A9F80196A068D0F83C11EE
:108E50000091807F8DF80800A068C0F83C51002385
:108E600009226946284603F098F8A1680923284694
:108E70008A7F2031521C03F090F8FEBDC1F83C51AE
:108E8000A068C0F8405100960196A068807F8DF8D8
:108E90000800E4E7FEB504468068D0F84061002E83
:108EA00028D0002309226946304603F06EF8A168F5
:108EB00001980025C1F84001009501952B46092233
:108EC00069463046029503F068F8304603F02FF803
:108ED000A168D1F8400170B100230922694603F06E
:108EE00054F80095A06800230922D0F84001694693
:108EF00003F053F8FEBDC1F83C51FEBDFEB504467B
:108F000080682030FEF720FC10F0FF05A0684FF0CD
:108F10000006C0F8446133D0A068D0F83C01E0B14D
:108F200000230922694603F030F89DF80820AA4280
:108F300013D1A068092300F1A001D0F83C01521C14
:108F400003F023F8A06800F1A0012030FDF7D5FA66
:108F50000028A06880F8A06012D000260A352946B3
:108F6000606902F0B4FF0100204604D003B0BDE800
:108F7000F040FFF753BFFFF78DFF761C082EEED3AE
:108F8000FEBD000010B50A4941600A4801F064F8CE
:108F900058B903F057FC07491C238C220874044875
:108FA0008C39001F006801F00FF8002010BD000090
:108FB00010F00200602C00202DE9F0412D4F00251B
:108FC00018B17D600120BDE8F0810879012258B117
:108FD000294E01280CD0274C4FF0020808340228F3
:108FE00021D0032842D128E00A7104F0D9F83BE0EF
:108FF0005FF0000000EB800116F82110022908D074
:10900000401C80B20228F5D33A707D6041F61D50B5
:10901000D9E700EB800006F8205006EB800040689E
:1090200004F0B0F820E00D71A4F8048000230122C0
:109030001248216801F064FF16E00D71206804F009
:10904000A1F80D4923682831498801EB810206EB1C
:109050008201D1F804C0C4F800C04B60A3880B8122
:10906000A4F8048006F822500028ACD07D600E20C1
:10907000A9E70000242300209C2B0020302400209E
:109080002DE9FC5F0E008346DDE90C47C6F10000C8
:1090900098469246814600D40846012503E000BF69
:1090A00090FBFAF06D1C5045FADAA84500D9454608
:1090B00024B1002E01DB780700D5641EB80702D565
:1090C000B8F1000F0AD0F80708D13CB1A54205D28B
:1090D00020215846641EFDF783FEF6E7002E02DAD3
:1090E0004E462D2102E0780703D52B215846FDF787
:1090F00077FE07F0030002280BD1B8F1000F08D16A
:109100003CB1A54205D230215846641EFDF768FEE9
:10911000F6E7CDE90047434652463146584605F04A
:10912000B3FABDE8FC9F000070B50D460446006828
:109130004FF4887103F01CFC4FF49071206803F029
:1091400017FC4FF49271206803F012FC4FF4A271E7
:10915000206803F00DFC20681149C0F80413206852
:10916000690740F30730090E002806DA00F00F0007
:1091700000F1E02080F8141D03E000F1E02080F809
:1091800000142068012140F3073000F01F029140D5
:109190004009800000F1E020C0F8001170BD00001F
:1091A00010030200024600201268530713D502F094
:1091B0000300012802D002280CD105E0C2F383107D
:1091C0000B68801C184404E00223086803EB9252E9
:1091D00010440860012070470248007A002800D03F
:1091E00001207047602C002010B5FDF79DF908B1F3
:1091F000002010BD012010BD800701D00020704765
:10920000012070472DE9F047394E002780463D4642
:10921000DFF8E090D6F804A057E003D00446D0F879
:109220001C8035E099F8002002EB4201521CD2B2BA
:1092300089F8002009EBC10199F80230091D9A4212
:1092400001D189F8005048680A780446012A12D0F2
:10925000022A02D0032A3BD108E004F0B7FF00B194
:109260000127257434E00574C06900E070680028A7
:10927000F9D170602CE0207C50BB88686060C868C1
:10928000A0600869E0604869A061F07800B165609D
:109290006268B168184B501A20F07F40984202D2A1
:1092A000A168084406E0881AA16820F07F40814246
:1092B00002D9081A206000E0256065600120A560E1
:1092C00020742046E56104F063FFB8F10000A4D1EA
:1092D00099F8001099F801008142A3D117B971687B
:1092E000514502D00120BDE8F0870020FBE70000D7
:1092F000DC220020DC290020FFFF7F00014B00F072
:1093000091BF000035950200014B00F08BBF0000BB
:1093100001970200014B00F085BF00000997020091
:10932000014B00F07FBF0000E19702007CB51446BE
:109330000546012902D001F0ABFB38B102B0284646
:10934000BDE870400022114601F05EBA616805A0D8
:10935000CDE9000109A202212846236801F02CFA78
:109360007CBD000020756E6B6E6F776E2070617231
:10937000616D657465723A200000000025733A251E
:109380007325730D0A0000002DE9FC41074601F02A
:109390007FFB38B102B03846BDE8F04100221146EB
:1093A00001F032BA1248134E801B050900241AE05E
:1093B00006EB0410C2681179FF2903D0527942B13B
:1093C0000DA207E083680EA20821384601F0F4F9E7
:1093D00008E013A2CDE90021836814A208213846D1
:1093E00001F0EAF9641CAC42E2D3BDE8FC81000064
:1093F0006008030040080300656E61626C656400EC
:1094000025730D0A092D205374617475733A206415
:10941000656163746976617465640D0A0D0A000004
:1094200064697361626C65640000000025730D0A55
:10943000092D205374617475733A2025730D0A0940
:109440002D2049443A2025640D0A0D0A0000000031
:1094500010B5044601F01CFB30B120460022BDE8E7
:109460001040114601F0D0B902F078F930B105A2F0
:1094700002212046BDE8104001F09EB90AA2082151
:10948000F7E700004661696C656420746F206C6FBB
:1094900061642074686520636F6E666967757261C8
:1094A00074696F6E2E0D0A00436F6E666967757280
:1094B0006174696F6E206C6F616465642E0D0A00C3
:1094C00010B5044601F0E4FA30B120460022BDE8B0
:1094D0001040114601F098B902F098F930B105A298
:1094E00002212046BDE8104001F066B90BA2082118
:1094F000F7E700004661696C656420746F2073743F
:109500006F72652074686520636F6E666967757237
:109510006174696F6E2E0D0A00000000436F6E6665
:10952000696775726174696F6E2073746F726564B8
:109530002E0D0A002DE9FF4FC86881B01D46007945
:1095400017004FF00006009057D0072245A1286869
:10955000FCF7EAFF78B1082244A12868FCF7E4FF91
:1095600000282FD02B6843A2019805B00221BDE846
:10957000F04F01F021B9012F02D0022F08D008E0EE
:10958000019805B041A2BDE8F04F022101F014B9E5
:109590000126DFF8108100240A2258F82410686898
:1095A000FCF7C2FF10B1641C052CF5D3052C06D0C6
:1095B00004F0FF090224002E51D0002419E03AA241
:1095C0006B68D1E7012F4FF00009F6D0012446E087
:1095D0004A462146009800F08DFC48B900212046FB
:1095E00002F0F6FB034638A20221019801F0E4F8EC
:1095F000641C02F097FBA042EAD805B0BDE8F08FEA
:109600004FF0000A55F824B002F08CFB804600268B
:1096100009E00021304602F0DBFB20225946FCF72E
:1096200083FF58B1761C4645F3D3464508D04A46D9
:109630005146009800F05EFC30B10FE0B246F4E70E
:1096400055F8243029A205E00021504602F0C0FB65
:1096500003461DA20221019801F0AEF8641CBC4231
:10966000CED3CAE7656E61626C65000064697361A0
:10967000626C6500556E6B6E6F776E206F707469EB
:109680006F6E3A2025730D0A0000000042616420CD
:10969000706172616D6574657220636F756E742E92
:1096A0000D0A000074230020556E6B6E6F776E20DC
:1096B0007365766572697479206C6576656C3A209D
:1096C00025730D0A000000004C6576656C20756EF0
:1096D000617661696C61626C6520666F72206D6F86
:1096E00064756C653A2025730D0A0000556E6B6E2B
:1096F0006F776E206D6F64756C653A25730D0A0087
:10970000C968012048717047C968002048717047D6
:1097100030B41346C4680A46214630BCFFF70ABF7E
:10972000C0680121C06841717047C0680021C068ED
:109730004171704730B41346C4680A46214630BCB4
:1097400000F04EB82DE9FF410026234800F081FCCF
:109750002148001F074600F07CFC204C6068009008
:10976000A56800E000986946284004EB80000C30B2
:10977000FFF718FD0028F5D101AA009901EA0503B9
:1097800004EB8303491CDB6842F82030401C009145
:109790000228F2D3019800F0030001280BD0022820
:1097A00010D10198032101EB90500099BDF80A6097
:1097B00001EB900005E00198BDF80A60C0F383104A
:1097C00008440090384600F041FC08B10098606001
:1097D00004B03046BDE8F081243200200C2E002079
:1097E0002DE9FE4F8846824602F09CFA0746D8F8DB
:1097F0000C00407920B922A20221504600F0DCFF83
:1098000024A327A20821504600F0D6FF2CA208214D
:10981000504600F0D1FF00242DE000BFD8F80C0026
:1098200001231A4605792146284602F085FA814629
:10983000002301222146284602F07EFA054603282D
:1098400001D2064600E003260121204602F0C0FABC
:109850000346AE4201D22AA200E028A2294850F8CD
:10986000261050F829008DE8070027A2082150464D
:1098700000F0A2FF641CBC42D0D3BDE8FE8F000004
:109880004C6F6773206172652068616C7465642138
:109890000D0A00006D6F64756C655F6E616D65002B
:1098A000252D343073207C2063757272656E7420B0
:1098B0007C206275696C742D696E200D0A000000B1
:1098C0002D2D2D2D2D2D2D2D2D2D2D2D2D2D2D2DC8
:1098D0002D2D2D2D2D2D2D2D2D2D2D2D2D2D2D2DB8
:1098E0002D2D2D2D2D2D2D2D2D2D2D2D2D2D2D2DA8
:1098F0002D2D2D2D2D2D2D2D2D2D0D0A000000008F
:109900002A00000074230020252D343073207C2091
:10991000252D3773207C20257325730D0A00000048
:109920008EB002F043FF08B1FDF79CF806A90120B4
:1099300002F0AEFD08B1FDF795F806A802F034FE7E
:1099400008B1FDF78FF8FDF7ADF808B1FDF78AF81B
:109950004FF40041002002F08DF908B1FDF782F8C4
:10996000FDF7B2FC6D486E4A6B4D801AC0086988DD
:10997000032202EB0044032903D3204669A102F02D
:1099800005F96E48FEF77CFF6888032803D320465C
:109990006BA102F0FBF8FEF76DFE08B1FDF762F86F
:1099A0006C4E3078002875D06888032842D3204652
:1099B00069A102F0EBF8688803283BD320466BA12D
:1099C00002F0E4F86888032834D320466EA102F040
:1099D000DDF8688803282DD3204674A102F0D6F85C
:1099E0006888032826D3204678A102F0CFF868883B
:1099F00003281FD320467BA102F0C8F868880328FB
:109A000018D320467EA102F0C1F86888032811D33C
:109A1000204682A102F0BAF8688803280AD32046BB
:109A200086A102F0B3F86888032803D320468BA1EF
:109A300002F0ACF814216846FCF74DFD6846FEF7CD
:109A400035FF08B1FDF70EF8688803280ED3BDF87E
:109A5000042020468AA102F09DF86888032805D3D7
:109A6000BDF8062020468CA102F094F80026079647
:109A7000089609960A960AAB07AA47F210014FF218
:109A800010000B96FEF7A6FEC0B16888032805D328
:109A9000204600E010E08EA102F078F8924907A875
:109AA000FEF7E9FE08B1FCF7DDFFFDF7F1FC00BFB2
:109AB00001F030FF48B329E041DF72E70C960CA9B2
:109AC00007A80D96FEF794FE08B1FCF7CBFF2148DE
:109AD00018225C300D99FCF7D7FC68881D4D5C3569
:109AE000032804D3204681A12A6802F053F828688D
:109AF000401C286007A8FEF72DFE08B1FCF7B2FF56
:109B0000794907A8FEF7B0FECCE741DFFDF7B2FCCC
:109B1000FEF77CFBCCE7000070240020B8080300AF
:109B200060080300464453206578616D706C6520C1
:109B3000737461727465642E000000000985020070
:109B4000496E697469616C697A696E6720666473CD
:109B50002E2E2E004C220020417661696C61626CD1
:109B60006520636F6D6D616E64733A002D207072B5
:109B7000696E7420616C6C09097072696E74207270
:109B800065636F72647300002D207072696E7420BB
:109B9000636F6E666967097072696E7420636F6EB9
:109BA00066696775726174696F6E00002D2075704B
:109BB00064617465090975706461746520636F6E12
:109BC00066696775726174696F6E00002D20737429
:109BD0006174090973686F772073746174697374B1
:109BE000696373002D20777269746509097772695A
:109BF00074652061206E6577207265636F72640002
:109C00002D2064656C657465090964656C6574650F
:109C10002061207265636F72640000002D2064650E
:109C20006C6574655F616C6C0964656C6574652056
:109C3000616C6C207265636F726473002D206763C2
:109C4000090972756E206761726261676520636FD2
:109C50006C6C656374696F6E00000000526561642E
:109C6000696E6720666C6173682075736167652033
:109C7000737461746973746963732E2E2E0000000F
:109C8000466F756E642025642076616C696420726D
:109C900065636F7264732E00466F756E6420256471
:109CA000206469727479207265636F72647320280E
:109CB000726561647920746F2062652067617262E9
:109CC00061676520636F6C6C6563746564292E0041
:109CD00057726974696E6720636F6E666967206684
:109CE000696C652E2E2E000064ED0200436F6E66D7
:109CF00069672066696C6520666F756E642C2075D7
:109D000070646174696E6720626F6F7420636F7531
:109D10006E7420746F2025642E0000002DE9FF4F23
:109D20004FF0000881B014468B468146C246C0F809
:109D300000802578002D71D0FCF754FB009000685E
:109D4000405DC00702D004F801AB84E0D9F8000000
:109D50008300401CC9F800004BF8034015E026784A
:109D6000002E78D0B8F1000F05D1222E10D0272E6A
:109D70000ED05C2E1ED0B04514D12046FDF7E4FC79
:109D80000246611C2046FCF77FFB4FF00008E6E727
:109D90002046FDF7D9FC0246611C2046FCF774FB07
:109DA000B046DCE7B8F1000F50D05C2E61D160788E
:109DB000404508D12046FDF7C7FC0246611C2046FD
:109DC000FCF762FB55E030281CD100270225605DBE
:109DD000A0F13001072906D86D1C41EAC701EDB298
:109DE000CFB2052DF3D3022D0CD92046FDF7ACFCE4
:109DF000421B61192046491E921CFCF745FB04F8E2
:109E0000017BACE778281ED100270225605DA0F118
:109E10003001092903D841EA07100DE021E0A0F143
:109E20006101052901D8573804E0A0F14101052955
:109E300007D8373840EA07106D1CEDB2C7B2042DC1
:109E4000E4D3022DD1D8B8F1000F12D100980068E8
:109E5000805DC0070DD0D9F8001004988142FFF44E
:109E600068AFD9F8002040464BF822A005B0BDE805
:109E7000F08F641C73E72DE9F047C5881E1DB6FB03
:109E8000F5F78946B6FBF5F1044605FB176C4079FA
:109E900016686843DDF820A0F718001F874200D934
:109EA000C61A166001E02468491E0029FBD1A5EB03
:109EB0000C078846B74216D818E004EB0C00001DCA
:109EC00009EB0803BAF1000F3A4602D001461846E2
:109ED00000E01946FCF7D8FA2468F61B4FF0000C96
:109EE000B844B54201D9374600E02F46002EE4D1F0
:109EF000BDE8F08770B5144600230D4606461A46A5
:109F000001F01AFF844201D9002070BD2246294683
:109F1000304601F035FF012070BD000030B502462B
:109F200051B101F0FFFE0021074C08E034F8213068
:109F30001568AB4202D11160002030BD491C81423E
:109F4000F4D3052030BD00004424002010B50C4699
:109F50000021E16061600349A160012101F038FF47
:109F6000206010BDDCF1020070B58468006804F167
:109F70001405FDF7E9FBC1B2A971E07F6A790844D5
:109F8000B0FBF2F302FB13035B1C2B70E07F084471
:109F9000B0FBF2F35B1CAB70A07F0844B0FBF2F3A4
:109FA0005B1CEB70A07F0844B0FBF2F102FB1101D7
:109FB000491C6970284670BD10B5FCF776F908B1E8
:109FC000002010BD112010BD10B531B1B2FBF3F46B
:109FD00003FB14241CB1092010BD0E2010BD01602C
:109FE0000021416081608281C381084610BD70B547
:109FF0000C460546FCF70EF9002802D02188286897
:10A00000084470BD10B50A8849888A4203D1FCF71C
:10A0100043F9012010BD002010BD70B50C46054667
:10A02000FCF71DF9002802D061882868084470BD3B
:10A0300010B50A8849888A4203D1FCF707F9012044
:10A0400010BD002010BD002100F00FB8002100F06D
:10A0500017B8012100F023B8012100F016B808B5A7
:10A060006A46FCF76EF9009808BD08B56A46FCF729
:10A070004EF9009808BD08B56A46FCF762F908BDBC
:10A0800008B56A46FCF743F908BD08B56A46FCF70F
:10A0900031F908BD08B56A46FCF720F908BD08B5D6
:10A0A0006A46FCF727F9009808BD08B56A46FCF730
:10A0B00055F9009808BD38B5044600258DF80050C4
:10A0C0006846FCF76DFD21686268086890420ED909
:10A0D000401E08600178238BE26801FB0325227A89
:10A0E0002168101AC0B20A79824200D208719DF824
:10A0F0000000FCF779FD284638BD38B5054600203C
:10A100008DF800000C466846FCF74AFDE868298B8C
:10A11000201AB0FBF1F12A681068431C136001702B
:10A120009DF80000FCF760FD38BD10B530B1017A34
:10A1300042680368891AC9B21A6006E00E2010BD91
:10A1400003681A68541C1C601170491EC9B2F7D20A
:10A15000006800210171084610BD00002DE9F0479C
:10A160000646806888B0D0F84801C0F3400038B196
:10A1700008B03046BDE8F0470022114600F044BB6D
:10A18000012907D908B03046BDE8F0471DA20221D9
:10A1900000F012BB2049DFF884A0A1EB0A001C21CB
:10A1A000B0FBF1F5002428E0C4EBC4010AEB810305
:10A1B0004FF000091F68D3E901103A793F78411A3E
:10A1C000B3F81880C01B5B69C0B2642712FB07F7A5
:10A1D000B7FBF1FC642710FB07F7B7FBF1F7CDE9FC
:10A1E0000621CDE9041CCDE902700D4A0821304654
:10A1F000CDE9008900F0E0FA641CAC42D4D308B089
:10A20000BDE8F08742616420617267756D656E74A8
:10A2100020636F756E74000010090300D8080300F6
:10A22000FCF902002DE9FF5F8B46164814499A4657
:10A23000091A0F09914652F8046C0025804607E080
:10A2400008EB05143046A168FCF757F918B16D1CEE
:10A25000BD42F5D30BE0210009D0009804B04B4675
:10A260005A46D446BDE8F04F5DF804EB60470098CD
:10A2700004B03346BDE8F05F03A2022100F09CBAAF
:10A280006008030040080300496E76616C69642031
:10A290006261636B656E643A2025730D0A000000ED
:10A2A00070B515468268D2F84841C4F3400424B121
:10A2B0001A46294600F0A8FA05E031B1536804A215
:10A2C000022100F079FA012070BD002070BD00006D
:10A2D00025733A2077726F6E6720706172616D65C9
:10A2E00074657220636F756E740A000010B50446C1
:10A2F00002290CD1A068D0F84801C0F3400030B169
:10A3000020460022BDE81040114600F07DBA064A02
:10A3100006A1206900F0EEFC034A2069BDE8104068
:10A32000093202A100F0E6BC5DEF020025730000D7
:10A33000012907D0022909D18168D1F84811C1F358
:10A34000400119B10022114600F05EBA01A20221BB
:10A3500000F032BA506C6561736520737065636993
:10A360006679206120737562636F6D6D616E642E16
:10A370000A0000001CB5012905D002290BD014D910
:10A380004FF0010112E002B04FF00002BDE81040B2
:10A39000114600F039BA536808A1CDE900131368DB
:10A3A0000CA2022100F008FA1CBD002102B000231B
:10A3B000BDE810401A46FFF773BF000020756E6BB2
:10A3C0006E6F776E20706172616D657465723A2090
:10A3D0000000000025733A257325730A0000000071
:10A3E00010B50446012901D0012100E0002100231D
:10A3F0001A46FFF755FF002809D1A168C1F83801B6
:10A40000E06840680068BDE8104001F031BE10BD52
:10A410003EB50546012901D0012100E000210023BD
:10A420001A46FFF73DFF002818D1E8684068046825
:10A43000204601F01AFEC0B2642110FB01F2A168AF
:10A44000B2FBF1F2D2B20092CDE90101A86804A2F8
:10A450000021D0F83831284600F0AEF93EBD0000AA
:10A460004C6F7374206C6F67733A2025750A4D61C9
:10A4700078206C6F67207175657565207574696CDF
:10A48000697A6174696F6E3A2025752525205B25F0
:10A49000752F25755D0A00007CB514460546012917
:10A4A00003D0022908D0012107E002B00022BDE854
:10A4B0007040114600F0A8B9002100231A46FFF7AA
:10A4C000EFFE002809D1616804A0CDE9000109A2CE
:10A4D00002212846236800F06FF97CBD20756E6B61
:10A4E0006E6F776E20706172616D657465723A206F
:10A4F0000000000025733A257325730A0000000050
:10A5000010B50446012901D0012100E000210023FB
:10A510001A46FFF7C5FE002806D1A068D0F84811FA
:10A5200021F00401C0F8481110BD10B504460129FE
:10A5300001D0012100E0002100231A46FFF7B0FE00
:10A54000002806D1A068D0F8481141F00401C0F8F5
:10A55000481110BD7CB514460D460646022901D9A6
:10A56000012100E0002100231A46FFF799FE002890
:10A5700011D1022D05D03046FCF7A0FE60B10BA32F
:10A580000BE061680AA0CDE900010FA2022130466C
:10A59000236800F011F97CBD0EA302B03046BDE87F
:10A5A00070400DA2002100F007B900006F6E00009E
:10A5B00020756E6B6E6F776E20706172616D657461
:10A5C00065723A200000000025733A257325730A4E
:10A5D000000000006F6666004563686F2073746159
:10A5E0007475733A2025730A0000000010B5044604
:10A5F000012901D0012100E0002100231A46FFF7C4
:10A600004FFE002806D1A068D0F8481121F00801BB
:10A61000C0F8481110BD10B50446012901D0012130
:10A6200000E0002100231A46FFF73AFE002806D179
:10A63000A068D0F8481141F00801C0F8481110BDD9
:10A640007FB50446012901D0012100E0002100234B
:10A650001A46FFF725FE002827D1A0680026D0F86B
:10A660004051F5B101E0082E1BD20023092201A9B7
:10A67000284601F08AFC9DF80C20A1680923284691
:10A68000A031521C01F081FCA0683346A03000903C
:10A69000029D761C05A20021204600F08DF8002DB9
:10A6A000E1D1A168002081F8A0007FBD5B25336463
:10A6B0005D2025730A0000007CB51546044601297B
:10A6C00003D0022917D9012116E0A16801F118026F
:10A6D000193103F0DFFC00281ED0A16850200FA222
:10A6E0004876A1681820087602B02046BDE8704080
:10A6F000042100F061B8002100231A46FFF7D0FDC5
:10A70000002809D1696814A0CDE9000118A202212E
:10A7100020462B6800F050F87CBD00004E6F207280
:10A720006573706F6E73652066726F6D20746865F7
:10A73000207465726D696E616C2C20617373756D28
:10A7400065642038307832342073637265656E201A
:10A7500073697A650A00000020756E6B6E6F776E04
:10A7600020706172616D657465723A2000000000AE
:10A7700025733A257325730A0000000010B50446BE
:10A78000012901D0012100E0002100231A46FFF732
:10A7900087FD00280AD1064A06A1206900F0AAFA1E
:10A7A000A16850204876A1681820087610BD0000E6
:10A7B00076EF0200257300000FB438B5044607A8F1
:10A7C0000090A068D0F84821520717D5C27E8A426F
:10A7D00014D0B0F81B50204604F052F86A462069A5
:10A7E000069900F0A0FAE9B2204604F049F8290AD7
:10A7F000204604F027F838BC5DF814FB6A4620694F
:10A80000069900F090FAF6E72DE9F04F804689B0FE
:10A8100017460C468648FCF797FF054684483638AD
:10A82000FCF792FF281A1FFA80F9814881A2233889
:10A830000090D8F80800082143684046FFF7BCFFA5
:10A84000D8F808004068FCF77FFF054678482338B1
:10A85000FCF77AFF284482B2D8F808000023816808
:10A860004046FEF771F875A200214046FFF7A4FFAD
:10A870000FB304B300251CE005EB450A04EB8A0B7B
:10A88000DBF80400FCF760FF064654F82A00FCF7EA
:10A890005BFF311849450BD9DBF80400FCF754FF86
:10A8A000064654F82A00FCF74FFF30441FFA80F99F
:10A8B0006D1CBD42E0D35E483638FCF745FF484486
:10A8C000801C1FFA80F95A4800904B465EA208216E
:10A8D0004046FFF771FF09F1030086B2079000239D
:10A8E00032465BA14046FEF72FF8002C52D00025DF
:10A8F0004EE000BF05EB450A04EB8A0B54F82A0032
:10A90000DBF804306BB350B3494956A23639CDE970
:10A91000001008214046FFF74FFF09F102000090A8
:10A92000DBF80400FCF710FF064654F82A00FCF799
:10A930000BFF06443E483638FCF706FF31180098F6
:10A94000401A801EC1B24046FDF722FC3A22484917
:10A95000D8F8100000F0CEF90098401C0AE00093EF
:10A9600001E040B100904B4637A208214046FFF776
:10A9700023FF079886B2DBF8081029B1002332467E
:10A980004046FDF7E1FF02E04046FDF733FB6D1C5A
:10A99000BD42AFD3D8F80800C068002845D0814632
:10A9A00000200446064603AD02903246761C02ABF8
:10A9B000012148460095FDF751F9029850B1006811
:10A9C000FCF7C2FEA042F0D902980068FCF7BCFE7A
:10A9D00084B2EAE7012E28D026A200214046FFF7E4
:10A9E000EBFE00263246761C02AB0121484600955C
:10A9F000FDF734F90298002817D0A11C8FB2006827
:10AA000000903B4610A208214046FFF7D5FE029871
:10AA1000FF1CBAB2416821B100234046FDF794FF04
:10AA2000E0E74046FDF7E6FADCE709B0BDE8F08F65
:10AA30007CEF020025732573000000004F707469DD
:10AA40006F6E733A0A0000002020252D2A733A0009
:10AA500053686F7720636F6D6D616E642068656CFD
:10AA6000702E000020202573257325730000000040
:10AA7000AC700200537562636F6D6D616E64733A02
:10AA80000A0000008068D0F84801C0F34000704719
:10AA90008068D0F84801C0F3400070472DE9F041CC
:10AAA0001E460546069F00F013F804000DD166B15E
:10AAB0003946E86800F024FD002802DA0420BDE8E9
:10AAC000F081E8680121C06841712046F7E7000085
:10AAD00070B50446C06815462346406884606068C7
:10AAE00002681668254AB047002845D1606901F020
:10AAF0003BFA002840D1A168C1F83C01A168C1F827
:10AB000040014FF4A671A068FBF7E5FCA068D0F8FF
:10AB1000481141F02001C0F84811A068D0F8481150
:10AB200065F38201C0F84811A068D0F8481141F0DF
:10AB30000801C0F84811A1680120124B0870A168F3
:10AB40005020114A4876A1681820087600210C4848
:10AB5000D21A06E003EBC1046468246840F821407F
:10AB6000491CB1EBD20FF5D3072A04D9D108074B02
:10AB70000422FBF73BFC002070BD00006D7A020050
:10AB8000F8230020D0070300400803008DE00200F6
:10AB90000023FDF715B8000010B5044680681021A9
:10ABA00000F5A470FFF77BFAA0680078F8B10128DF
:10ABB0001DD002281BD12046FCF778FC002120463E
:10ABC000FCF7A2FB98B110A2032120462368FFF7EF
:10ABD000F3FD2046FCF772FB48B1A3680AA20821E6
:10ABE00020462033FFF7E8FD2046FDF79BFA206959
:10ABF00000F08DF8A068BDE810406FF0100100F57E
:10AC0000A470FFF732BA00002573000070B5044647
:10AC100080680078012801D0082070BD6068016854
:10AC20008A680021904705000FD10821204603F0D3
:10AC300027FE0121204603F005FE05A1206900F052
:10AC400059F802212046FCF76BFD284670BD000034
:10AC50000A0A0000F0B505460478154889B0164682
:10AC600040F82420124A08690832A2F10C0742F881
:10AC70002400487F385520226846FBF705FC0494E1
:10AC80002878385C48B10EB10A4A00E000226946D3
:10AC9000281D02F05DF809B0F0BD0EB1064A00E0D3
:10ACA0000022694605F10C0001F0A6FEF3E7000062
:10ACB000C422002045E5020091E3020030B403788D
:10ACC000054CE35C1BB130BC001D02F00FB930BC79
:10ACD0000C3001F079BF0000C02200200178044A46
:10ACE000515C11B1001D02F057B90C3001F0CEBF1C
:10ACF000C02200200FB408B50399002904D004AA8B
:10AD000000926A4600F00FF801B05DF814FB10B530
:10AD100082680446002A05D0D4E9040321689847D4
:10AD20000020A06010BD2DE9FC4791460C00804634
:10AD300076D014F8011B39B125290ED04046FCF716
:10AD40004FF820780028F4D198F80C00002867D03C
:10AD50004046BDE8FC47FFF7DABF0020012221781A
:10AD60002B291BD02D2902D0302908D102E040F038
:10AD7000010001E040F00200641C002AEFD1002530
:10AD80002A290ED02178A1F130020A2A11D205EB2E
:10AD9000850201EB4205641C303DF1E740F0040000
:10ADA000EAE7D9F800100B1DC9F800300968641CE7
:10ADB0000D44217800232E290BD114F8011FA1F195
:10ADC00030020A2A05D203EB830201EB4203303B37
:10ADD000F3E76C290DD068290BD0692921D00BDC51
:10ADE000252918D0582931D063290ED0642915D1CE
:10ADF00017E014F8011FECE7702969D0732932D0ED
:10AE000075291BD0782909D120E0D9F80000011D4F
:10AE1000C9F8001001784046FBF7E2FF641C90E798
:10AE20006CE0D9F800100A1DC9F800200968CDE9C6
:10AE300000500A224046FEF723F9EFE7D9F8001048
:10AE40000A1DC9F8002009680A2206E0D9F8001096
:10AE50000A1DC9F8002009681022CDE900504046BB
:10AE600003F012FCDAE7D9F8001000270A1DC9F830
:10AE700000200E68C00705D112E04046761C7F1CFA
:10AE8000FBF7AEFF31780029F7D104E020214046DE
:10AE90006D1EFBF7A5FFBD42C0D9002DF6D1BDE761
:10AEA0004EB13046FBF722FB074604E02021404626
:10AEB0006D1EFBF795FFBD4206D9002DF6D103E0CC
:10AEC0004046761CFBF78CFF31780029F8D1A5E7C6
:10AED000D9F80000011DC9F800100568302140466E
:10AEE000FBF77EFF78214046FBF77AFF0820002120
:10AEF000CDE90001034610222946B0E7BDE8FC87F2
:10AF00002DE9F84F8946050032483349304FA0EB10
:10AF100001004FEAD0004FF0010101EB00447888B6
:10AF20009A46164626D0296800292FD0002E38D000
:10AF30006A6849464FF010081268531E13EA090F59
:10AF400010D172432846FBF737FD002834D028681B
:10AF500053463246046901B049462846A446BDE836
:10AF6000F04F6047002831D020461C4B1CA2CDF882
:10AF7000008028E038B10E2000902046174B22A216
:10AF800023A100F016FE0E20BDE8F88F38B108208E
:10AF900000902046114B29A21DA100F00AFE0820B6
:10AFA000F2E738B10920009020460C4B26A218A1E8
:10AFB00000F0FFFD0920E7E7788838B1074B234A06
:10AFC0002046CDF8008012A100F0F3FD1020DBE751
:10AFD000602400209808030060080300F7EF0200D7
:10AFE000616464725F69735F706167655F616C69FA
:10AFF000676E656428705F66732C20706167655F9B
:10B000006164647229000000705F667300000000D4
:10B01000257320636865636B206661696C656420D5
:10B02000696E202573282920776974682076616C01
:10B03000756520307825782E00000000705F6673FB
:10B040002D3E705F617069006C656E0044FD02000A
:10B05000F8B503001448154E124CA0EB06004FEA59
:10B06000D0004FF0010664884FF00E0506EB00405B
:10B0700009D069B119600C6801B0A446BDE8F04080
:10B0800011461846604754B1094B0AA2009503E0E7
:10B090002CB1074B09A200950AA100F08AFD0E20F1
:10B0A000F8BD000060240020980803006008030039
:10B0B000ACEF0200705F667300000000705F6170AB
:10B0C00069000000257320636865636B2066616911
:10B0D0006C656420696E202573282920776974685F
:10B0E0002076616C756520307825782E0000000090
:10B0F000044801214174007A08B100207047012002
:10B1000070470000602C0020012801D0032808D1DE
:10B110000449002201284A7400D00020087402F07B
:10B120003BBB7047602C002070B50246022801D05E
:10B13000032A45D1234C207A002841D0012833D05E
:10B14000022831D120480023022A006802D0032AB5
:10B150002AD11BE0E360017911B1012924D10DE06E
:10B16000D0E90565711B4FF48056B14200D33146DA
:10B17000294481614569A9420ED015E00169491C45
:10B180000161426991420FD1237213E0E168491CC9
:10B19000E160082908D9E3602372022A0AD00D2150
:10B1A000FDF788F902F09EFA607C28B1BDE8704096
:10B1B00001F04EBB0021F3E7BDE8704002F0ECBAAD
:10B1C00070BD0000602C00204C2300202DE9F84FBA
:10B1D000914605004348444A414EA0EB02004FEA25
:10B1E000D0004FF0010202EB00448B467088DDF87E
:10B1F00028A098464FF00E011CD0B9F1000F1FD0C7
:10B200002968002926D00921B8F1000F2DD06A68DD
:10B210005368B8FBF3F703FB1782002A2CD030B138
:10B22000324B204632A200913CA100F0C2FC092022
:10B23000BDE8F88F60B120462C4B43A2009104E09A
:10B2400030B12A4B204642A2009134A100F0B1FC5B
:10B250000E20EDE738B1082000902046234B3EA297
:10B260002EA100F0A6FC0820E2E70028DFD020464F
:10B270001E4B3CA20091D7E75846FBF797FB1027DF
:10B2800098B14846FBF792FBB8B14246594628466A
:10B29000FBF792FBD8B1CDF800A0286843464A4698
:10B2A000C46859462846A047C2E77088002815D0D0
:10B2B00020460E4B2CA2009705E0708870B10B4B16
:10B2C00020462FA2009715A100F073FC06E07088BD
:10B2D00020B12046054B33A20097F4E71020A7E7E2
:10B2E000602400209808030060080300E4EF0200D7
:10B2F00021286C656E202520705F66732D3E705F7F
:10B30000666C6173685F696E666F2D3E70726F6701
:10B3100072616D5F756E697429000000257320638A
:10B320006865636B206661696C656420696E2025C1
:10B3300073282920776974682076616C75652030E0
:10B340007825782E00000000705F66730000000012
:10B35000705F737263000000705F66732D3E705FF4
:10B36000617069006C656E00616464725F69735F2F
:10B37000616C69676E656433322864657374290093
:10B38000616464725F69735F616C69676E65643381
:10B3900032282875696E7433325F7429705F737256
:10B3A00063290000616464725F69735F7769746820
:10B3B000696E5F626F756E647328705F66732C20B0
:10B3C000646573742C206C656E2900002DE9FF41C3
:10B3D0001C46DDE90A7815460E46684600F060F81E
:10B3E00046EA450141EA840141EA072242EA08416E
:10B3F000009A00EB8200C0F80017BDE8FF812DE93C
:10B40000FF411C46DDE90A7815460E46684600F005
:10B4100055F846EA450141EA840141EA072242EA39
:10B420000841009A00EB8200C0F80017BDE8FF81D8
:10B430001CB5002100910B4601220191FFF7C6FFC8
:10B440001CBD1CB5002100910B4601220191FFF7A4
:10B45000D6FF1CBD1CB500220B460092114601927E
:10B46000FFF7B4FF1CBD1CB500220B46009211462D
:10B470000192FFF7C4FF1CBD1CB5002100910B46D3
:10B48000012201911146FFF7A1FF1CBD1CB500214F
:10B4900000910B46012201911146FFF7B0FF1CBD40
:10B4A0000168202902D24FF0A040704701F01F012F
:10B4B0000160014870470000000300500168202926
:10B4C00002D24FF0A040704701F01F010160014817
:10B4D000704700000003005001B56846FFF7E0FF29
:10B4E000009A01219140C0F8081508BD01B56846D1
:10B4F000FFF7E4FF009A01219140C0F8081508BD4C
:10B500002DE9F041054620480E460024D0F81034BD
:10B5100019460AE0CA681179A14205D1641C0A2CB7
:10B52000F6DB4FF0FF342BE011680029F2D1611CEB
:10B5300026D0E9680C71D0F8101459B1C968EA68CE
:10B5400009681160D0F81004C06805600027DFF8B2
:10B550003C8011E0C0F81054E96800200860F5E76D
:10B5600008EBC700C279B24200D33246E8683946D8
:10B57000007900F005FC7F1C00F0D4FBB842EFD846
:10B580002046BDE8F08100000C2E0020600803007A
:10B5900038B5416800228C680868694600F006FDED
:10B5A000002803D100212046FBF7AEFE38BD10B5C0
:10B5B00040688468606801688A680121904718B112
:10B5C0000420A168087010BD0320FAE72DE9F341BB
:10B5D0004468A668B068007804281ED0032807D005
:10B5E000002501A9206800F04EFD85F0010709E063
:10B5F0000125F6E739463046FBF786FE01A92068AB
:10B6000000F041FD0028F5D1019800F0A9FC002DC3
:10B6100003D000213046FBF777FEBDE8FC81F0B592
:10B6200095B01C4615460F4608461A9E00F098FC39
:10B63000182109A8FAF74FFF0E96CDE90954002307
:10B64000082203A9384600F0A0FC05980690BDF832
:10B650001000ADF81C00BDF81200ADF81E0000206F
:10B660008DF821000398082600F00300012802D07D
:10B67000022818D032E003983346850AC0F3C2008E
:10B680008DF8200003980FA9C0F38314A200384658
:10B6900000F07BFC09A8009006AB22460FA92846C3
:10B6A00000F0BAFB1AE00398840DC0F3C2008DF8D5
:10B6B0002000082C01D2254600E0082533462A4602
:10B6C0000FA9384600F061FC2E44641B09AB06AAA2
:10B6D00029460FA800F076FA002CEAD1384600F08F
:10B6E00045FC15B0F0BD7047084810B50178084A10
:10B6F000515C19B1001D01F04FFC02E00C3001F06B
:10B70000C5FABDE81040002002F060BE58230020BA
:10B71000C022002008B5034A00924023024AFFF7E6
:10B720007EFF08BDA5DE0200742C00200A4A012914
:10B7300002EBC00007D0022907D0032907D0042953
:10B7400007D000207047022070470420704700791E
:10B7500070474079704700006008030010B588B05A
:10B760000024039404940594069406AB03AA43F2C0
:10B77000274141F26E000794FDF72CF820B10A280A
:10B7800015D0032008B010BD019401A903A80294AC
:10B79000FDF72EF80028F5D10D480E4902468A1A09
:10B7A0000299FAF771FE03A8FCF7D4FFEAE70A480A
:10B7B0004088022809D309480949401AC0080221D3
:10B7C00001EB004007A100F0E1F90520DAE70000F5
:10B7D00080240020BC24002070240020B80803002E
:10B7E000600803004C6F6767657220636F6E66695F
:10B7F0006775726174696F6E2066696C65206E6F23
:10B800007420666F756E642E0000000070B58AB0FB
:10B810000020204902900090019007900890D1E903
:10B820000701CDE904011C481C4907AB401A8008F8
:10B8300006906A4643F2274141F26E00FCF7CAFFC8
:10B840001849194A164E891AC908032202EB014405
:10B8500028B10A280FD003250AB0284670BD04A9D4
:10B860006846FDF701F8054670880328F4D32046A2
:10B870002A460EA10AE004A96846FCF7FCFF05462B
:10B8800070880328E8D320462A4615A100F082F9E3
:10B89000E2E70000DCF10200BC240020802400204C
:10B8A00070240020B8080300600803004C6F67672D
:10B8B000657220636F6E66696775726174696F6E19
:10B8C0002066696C652075706461746564207769B1
:10B8D000746820726573756C743A2564000000000A
:10B8E0004C6F6767657220636F6E6669677572611A
:10B8F00074696F6E2066696C65207772697474650F
:10B900006E207769746820726573756C743A25646B
:10B91000000000002DE9F04F8DB0FBF779FA18B167
:10B9200000200DB0BDE8F08F8D4C0020C4F8180445
:10B93000BFF34F8F60680290A5684FF00009284060
:10B9400004EB80000CE000BFD4F8180470B9216843
:10B950000298814201D86160E2E7284004EB800050
:10B960000C3002A9FDF71EFC0028EDD1002003AA2F
:10B97000A046029901EA050408EB8403491CDB6830
:10B9800042F82030401C02910228F2D3039800F0C4
:10B990000300022802D0012850D0C2E003985022B0
:10B9A000810D8A46B2EB905F00D850210F4667F3B5
:10B9B0009F50C0F3C206039008316A4800F087FA2E
:10B9C0000400EAD000F0CCFA4B46082203A9204636
:10B9D00000F0E3FA029909F1080B2940681A800087
:10B9E000001D874223D95E4D0C3530B1C2B208EB41
:10B9F0008101381A91460C3104E02946FAB200253B
:10BA000091462846C7B25B46204600F0C6FA0BEBCB
:10BA100009032DB13A4629464FEA040000F0BDFA69
:10BA200002990AF1030001EB900002903DE008EB5F
:10BA300081015B463A4620460C31EFE70398C0F39C
:10BA40008310062800D30620039960F38911C1F3FF
:10BA50008310C1F3C206801C03918100414800F0AD
:10BA600036FA04005DD000F07BFA4B46082203A9A9
:10BA7000204600F092FA09F1080900270FE0029829
:10BA80004B4600EA0501401C08EB810102900422AC
:10BA900020460C3100F081FA09F104097F1C03985B
:10BAA000C0F38310B842EAD8D4B3D8F81054D8F809
:10BAB00018044746F8B1204600F058FA4AE0E86812
:10BAC0004179012915D10179BDF81000264A01EB11
:10BAD000410152F8200007228A401040C840052E3C
